:0200000490006A
:1000000000C900206D0400909104009093040090BA
:10001000E9390090970400909904009000000000D6
:10002000000000000000000000000000B10300908C
:100030009D0400900000000005040090A141009084
:10004000A3040090A3040090A3040090853E0090B8
:10005000A3040090A3040090A3040090A3040090C4
:10006000A3040090A3040090A3040090A3040090B4
:10007000A3040090A3040090A3040090A3040090A4
:10008000A3040090A3040090A3040090A304009094
:10009000A3040090A3040090A3040090A304009084
:1000A000A3040090A3040090A3040090A304009074
:1000B000254400903D44009061440090A3040090CA
:1000C000A3040090A3040090A3040090A304009054
:1000D000A3040090494A0090A3040090A304009058
:1000E00065200090FD3A009000000000A3040090FD
:1000F000A3040090A3040090A3040090A304009024
:10010000A3040090A30400909D440090A3040090D9
:10011000A3040090A3040090A3040090A304009003
:10012000A3040090A3040090A3040090A3040090F3
:10013000A3040090A3040090A3040090A3040090E3
:1001400000000000000000000000000000000000AF
:10015000A3040090A3040090A3040090A3040090C3
:10016000A3040090A3040090A3040090A3040090B3
:10017000A3040090A3040090A3040090A3040090A3
:10018000A3040090A3040090A3040090A304009093
:10019000A3040090A3040090A3040090A304009083
:1001A000AD350090A3040090A3040090A304009038
:1001B000A3040090A3040090A3040090A304009063
:1001C000A3040090A3040090A3040090A304009053
:1001D000A3040090393A0090A3040090A304009077
:1001E000A3040090A3040090A3040090A304009033
:1001F000A3040090A3040090A3040090A304009023
:10020000A3040090A3040090A3040090A304009012
:10021000A3040090A3040090A3040090A304009002
:10022000A3040090A3040090A30400900000000029
:10023000A3040090A304009000000000A304009019
:10024000A3040090A3040090A3040090A3040090D2
:10025000A3040090A3040090A3040090A3040090C2
:10026000A3040090A3040090A3040090A3040090B2
:10027000A3040090A3040090A304009000000000D9
:10028000A3040090A3040090A304009000000000C9
:1002900000000000A304009000F002F800F078F8DD
:1002A0000AA090E8000C82448344AAF10107DA45D1
:1002B00001D100F06DF8AFF2090EBAE80F0013F0AB
:1002C000010F18BFFB1A43F001031847EC4F010060
:1002D0000C5001000A444FF0000C10F8013B13F0E1
:1002E000070408BF10F8014B1D1108BF10F8015B8F
:1002F000641E05D010F8016B641E01F8016BF9D182
:1003000013F0080F1EBF10F8014BAD1C0C1B09D1D8
:100310006D1E58BF01F801CBFAD505E014F8016B4A
:1003200001F8016B6D1EF9D59142D6D370470000DC
:100330000023002400250026103A28BF78C1FBD8EE
:10034000520728BF30C148BF0B607047662909F0CB
:10035000C280642900F02C81752900F02981782958
:1003600000F06281632900F09485732900F099857B
:10037000002070471FB509F0A9F800F0CBFD04007C
:100380000020002109F08CF8E0601FBD10B510BD01
:1003900000F0E8FE1146FFF7EDFF05F081FD00F0EB
:1003A00006FF03B4FFF7F2FF03BC05F00EFD0000EB
:1003B0002B4B19680868B0E8F04F80F30988BFF349
:1003C0006F8F4FF0000080F311887047000000002D
:1003D00006480068006880F3088862B661B6BFF31B
:1003E0004F8FBFF36F8F00DF00BF00BF08ED00E04D
:1003F000DFF80C00016841F470010160704700BF34
:1004000088ED00E0EFF30980BFF36F8F144B1A689B
:100410001EF0100F08BF20ED108A20E9F04F106089
:1004200008B44FF0500072B680F31188BFF34F8FBD
:10043000BFF36F8F62B608F02BF94FF0000080F326
:10044000118808BC19680868B0E8F04F1EF0100F5A
:1004500008BFB0EC108A80F30988BFF36F8F704734
:10046000EC010020EFF3058070470000DFF840004A
:10047000016841F470010160BFF34F8FDFF8340071
:10048000016821F040410160BFF36F8F0A480047C7
:10049000FEE7FEE7FEE7FEE7FEE7FEE7FEE7FEE734
:1004A000FEE7FEE705480649064A074B704700008D
:1004B00088ED00E034EF00E09902009000C30020D6
:1004C00000C9002000C5002000C5002070470000C2
:1004D0000FB4044910B503AA029800F0E7FC10BC61
:1004E0005DF814FBA80000200FB41CB5074B06AA4A
:1004F0007B4469460090059800F0A9FC00206946FD
:1005000000F0B8FC1CBC5DF814FB00008109000081
:1005100070B5044685690068C10601D5302600E043
:100520002026C00707D070BDD4E90121304690478E
:10053000206A401C20626D1EF6D570BD70B5044661
:1005400085690078C00707D170BDD4E9012120205A
:100550009047206A401C20626D1EF6D570BD70B5B4
:100560000C460546012A05D02878800600D5EA69A0
:10057000002302E0012305E05B1C934202D2E05C11
:100580000028F9D1A869E618C01AA861286A184499
:1005900028622846FFF7BCFF04E0D5E9012114F8E2
:1005A000010B9047B442F8D32846FFF7C7FF70BD50
:1005B0002DE9F0410646002410687529314616A53C
:1005C00010D0AFF30080002802DA404213A507E004
:1005D00031688A0701D512A502E0490704D511A5A3
:1005E000012401E0AFF3008000210A2206F1240774
:1005F00009E0B0FBF2FCB0FBF2F302FB1C00303070
:1006000078541846491C0028F3D123462A46304620
:10061000BDE8F04100F0B0B9000000002D0000007E
:100620002B0000002000000070B504460D46214656
:100630001068AFF300802188090502D50F4A7A447B
:1006400002E00E4A7A440E32002104F1240305E050
:1006500000F00F060009965D5E54491C0028F7D192
:1006600020780023000704D5702D02D009B10223A1
:1006700011322046BDE8704000F07EB9444B0100C5
:100680002DE9F05F894604464FF0000ADFF874B1A7
:10069000FB44C0F820A02046E1688847002874D0B9
:1006A000252806D0D4E901219047206A401C206209
:1006B000F1E700265F462046E16888472028054686
:1006C00007DB312D05D2781910F8200C08B106434C
:1006D000F1E7B00701D526F00406C4F81CA00027F6
:1006E000C4F818A02A2D09D0284605F067FB38B3B6
:1006F00004EB8708303DC8F8185019E059F8041B7E
:10070000204604EB87029161E1688847012F054686
:1007100018D1E069002820DA26F020061DE0D8F87C
:10072000180000EB800005EB40003038C8F81800D6
:100730002046E1688847054605F040FB0028EED1D9
:10074000012F0AD02E2D08D12046E16888477F1C52
:100750000546022F46F02006C4DBA069002803DA14
:10076000404246F00106A061F00701D026F01006D5
:100770006C2D0BD0682D09D04C2D39D06A2D35D079
:10078000742D35D07A2D33D016E038E0E1682F464D
:1007900020468847B842054609D16C2F26D04FF431
:1007A0008060E168064320468847054604E06C2FD8
:1007B0001AD04FF4807006430DB3A5F141001928FB
:1007C00002D8203546F400664A462946204626606F
:1007D0004E46FFF7BBFD80B101280BD0F61D26F079
:1007E000070000F1080956E74020E4E78020D8E739
:1007F0000020D6E706F104094DE7284652E7206AB3
:10080000BDE8F09F1A4B0100032A40F2308010F03F
:10081000030C00F0158011F8013BBCF1020F62449B
:1008200098BF11F801CB00F8013B38BF11F8013B2C
:10083000A2F1040298BF00F801CB38BF00F8013BD9
:1008400011F0030300F02580083AC0F0088051F849
:10085000043B083A51F804CBA0E80810F5E7121D54
:100860005CBF51F8043B40F8043BAFF30080D20773
:1008700024BF11F8013B11F801CB48BF11F8012B3F
:1008800024BF00F8013B00F801CB48BF00F8012B62
:10089000704710B5203AC0F00B80B1E81850203AEC
:1008A000A0E81850B1E81850A0E81850BFF4F5AF10
:1008B0005FEA027C24BFB1E81850A0E8185044BF9A
:1008C00018C918C0BDE810405FEA827C24BF51F807
:1008D000043B40F8043B08BF7047D20728BF31F8FB
:1008E000023B48BF11F8012B28BF20F8023B48BF4C
:1008F00000F8012B704702F0FF0343EA032242EAAB
:10090000024200F0E7BA00004FF0013C50F8042B1F
:1009100051F8043B9A4215D1A2EB0C03934313EA1E
:10092000CC130BD150F8042B51F8043B9A4209D157
:10093000A2EB0C03934313EACC13E7D04FF0000073
:10094000704700BFD01A01BAB1FA81F101F0180165
:1009500022FA01F0CB40C1F12001DBB2C0B2C01AD3
:100960002CFA01F3D11A914311EAC311E6D1704771
:1009700070477047704770472DE9F0470D4699461C
:100980009246044600F124080168880604D5E0690F
:1009900021F01001216000E00120A84201DD471B89
:1009A00000E00027A1697A1902EB0900081AA0618A
:1009B0002078C00602D42046FFF7AAFD002608E0F2
:1009C000D4E901211AF806009047206A401C761CE1
:1009D00020624E45F4DB2078C0060AD52046FFF79A
:1009E00097FD06E0D4E9012130209047206A401CA1
:1009F0002062381EA7F10107F4DC07E0D4E90121E9
:100A000018F805009047206A401C2062281EA5F1B6
:100A10000105F3DC2046FFF791FD2078000602D5A2
:100A20000220BDE8F0870120FBE770472DE9FF4F6A
:100A30000C461E464FF0FF378BB0D2E90001DDF8BF
:100A400060800A908A46C1F30A5505B93D460021E7
:100A500008464FF00000BAF1000F00F4400005DA3C
:100A600000EB80004FF4400101EA50004FEA90593A
:100A7000B9F1010F00DDB9460A9850EA4A000ED0DC
:100A800044F61050A5F2FF3545432F14B8F1000F7E
:100A90001ED07542291E1EDDC9F100021CE0B8F10E
:100AA000010F4FF0000001D0302103E0F24305E0D8
:100AB0002154401CB042FBDB30460022002121546F
:100AC0000B99C1F80880C1E900200FB0BDE8F08F94
:100AD000BD1B6D1CDEE74A4600DA694206A800F03D
:100AE000A3FA06AB93E8070003AB83E80700504680
:100AF0000A9900F065FB8DE80700A0F500501F384B
:100B000000900398002D09DD42F21F014A46084477
:100B100003A90390684600F0C4FD08E0A0F500506A
:100B20004A461F3803A90390684600F0CEFD8DE8C1
:100B300007000004000C03D04FF0FF30410800E034
:100B40001046B8F1000F03D00022009215461EE0B7
:100B5000751E05D400F0E2F9303262556D1EF9D5EC
:100B6000B3460122084302D000227F1C04E0207813
:100B7000302801D100227F1E002A099786D01DE06F
:100B8000112D07DA00F0CAF9303262556D1C50EAB7
:100B90000102F5D1084302D00098C8B10EE000214F
:100BA000681E05E0235C625C63542254401E491CAD
:100BB0008142F7DBAB46A81B401E0990002004F8D9
:100BC0000B000B98099AC0F80880C0E9002B7CE75D
:100BD00011264FF0000859E72DE9F04F88460446EA
:100BE000D21D22F0070191B0D1E90001CDE90A013F
:100BF00005F0CCF802460B98C00F01D02D2007E07D
:100C00002068810701D52B2002E0202101EAC000E5
:100C1000032A099001D0072A05DB034641462046F6
:100C200000F0C2F90BE12078800601D5E06900E010
:100C30000620B8F1650F814606D0B8F1660F18D0CE
:100C4000B8F1670F70D131E00020B9F1110F0090B9
:100C500001DB112301E009F101030AAA01A90CA893
:100C6000FFF7E4FEDDE90C70002609F1010583467B
:100C700047E001204B4600904FF000470AAA01A927
:100C80000CA8FFF7D3FEDDE90DB00C995D460026F8
:100C900010B909F101000D18B9EB050003D4C0F13A
:100CA000FF3609F10105A5EB09002BE0B9F1010FB1
:100CB00001DA4FF001090020B9F1110F0090484608
:100CC00001DD112300E003460AAA01A90CA8FFF7E1
:100CD000ADFEDDE90C704D46002683462078000706
:100CE0000AD4AB4500DA5D4601A8012D04DD4119A7
:100CF00011F8011C302907D04F4502DA17F1040F13
:100D000004DA012082460FE06D1EEEE7002F02DCC0
:100D1000ED1B3E4403E0781CA84200DD7D1CB81B9F
:100D200000F1010A4FF000472078000703D4AA45DC
:100D300001DB4FF0FF3A0021B7F1004F0DF14308FE
:100D40008DF8431024D002202B23002F01DA7F429C
:100D50002D230A21021EA0F1010000DC5FB197FBE8
:100D6000F1FC97FBF1F201FB1C7C17460CF1300CF7
:100D700008F801CDEEE7A8F101000370218809050C
:100D800001D5452100E06521A0F1010800F8011C12
:100D900009980FA9A1EB0807FF1D00B10120411917
:100DA00001EBEA70A1693844081A401EA06120785E
:100DB000C00602D42046FFF7ABFB099828B1D4E95E
:100DC00001219047206A401C20622078C00622D56D
:100DD0002046FFF79DFB1EE0002E04DBB34502DD3D
:100DE00001A8805D00E03020D4E901219047206A0D
:100DF000401C2062761CAAF101005FEA000A0AD1B9
:100E000000F088F8C0680168405CD4E9012190478F
:100E1000206A401C2062281EA5F10105DCDC07E0E9
:100E2000D4E9012118F8010B9047206A401C206288
:100E3000381EA7F10107F3DC2046FFF77FFB0320F4
:100E400011B043E601694A1C02610878704700B599
:100E50008FB0CDE901310021059105497944CDE9F3
:100E6000031011466846FFF70BFC0FB000BD0000F1
:100E7000E5FFFFFF0A6802F8010B0A60704710B532
:100E8000436913B1AFF3008001E0FFF768FB012075
:100E900010BD127800F124010A7000224A7001226C
:100EA000EDE711684FF0FF32E9E70000074B70B53E
:100EB0000D467B44FFF7CBFF0446284600F022F99D
:100EC00010B14FF0FF3070BD204670BDBB4F000029
:100ED0004FF000020429C0F0128010F0030C00F063
:100EE0001781CCF1040CBCF1020F18BF00F8012BE4
:100EF000A8BF20F8022BA1EB0C0100F009B95FEAB2
:100F0000C17C24BF00F8012B00F8012B48BF00F87A
:100F1000012B704700487047C0C2002030B5B0F1C7
:100F20000A024FEA900E71F100034EEA817EB0EBA7
:100F30000E0061EB91014FEA101E4EEA017E10EBAC
:100F40000E0041EB11114FEA102E4EEA016E10EB2C
:100F50000E0041EB11214FEA104E4EEA014E10EB0C
:100F60000E0041EB1141401841F100014FEAD00061
:100F700040EA41704FEAD10110EB80054FEA81044D
:100F800044EA907444EB01046D1944EB0404521BD1
:100F9000A3414FF0000348BF0A3200D530BD401CCA
:100FA00041F1000130BD00002DE9F0411F4604462B
:100FB00003260168072A01F4006004DB08B116A5C6
:100FC00005E016A503E008B115A500E015A521F080
:100FD00010002060A069C01EA0610FB1401EA0617A
:100FE0002046FFF795FA4FB1D4E9012138469047E2
:100FF000206A401C2062C01C206206E0206AFAE7DA
:10100000D4E9012115F8010B9047761EF8D220464D
:10101000FFF794FABDE8F0814E414E006E616E001C
:10102000494E4600696E66002DE9F0478146164636
:101030008AB0334878440DC88DE80D0030487844B4
:10104000801C03AC0DC884E80D0041F69B300844B9
:10105000372190FBF1F290FBF1F5A5F1800501FB42
:1010600012041B3C02D56442012000E00020DFF89E
:1010700090A080460027FA44AAF1BE0A0DE0E007DE
:1010800009D03246684607EB47010AEB810100F0C0
:101090001CFB8DE8070064107F1C002CEFD1184F5B
:1010A0007F44AC3F18E0E80714D007EB04100DF1C3
:1010B000180A90E80E008AE80E00C068F04201D1DC
:1010C00098190890324606A903A800F0FEFA03AB6F
:1010D00083E807006D10641C002DE4D13246694698
:1010E000B8F1000F03A802D000F0DBFA01E000F035
:1010F000ECFAC9E90001C9F808200AB0BDE8F08798
:1011000004420100007B00F0800070474FF00002B5
:1011100000B5134694469646203922BFA0E80C50ED
:10112000A0E80C50B1F12001BFF4F7AF090728BFC8
:10113000A0E80C5048BF0CC05DF804EB890028BF44
:1011400040F8042B08BF704748BF20F8022B11F06D
:10115000804F18BF00F8012B70470000004870470F
:10116000A0C200207546FFF7F9FFAE4605006946AC
:10117000534620F00700854618B020B5FFF792F9D6
:10118000BDE820404FF000064FF000074FF0000888
:101190004FF0000B21F00701AC46ACE8C009ACE809
:1011A000C009ACE8C009ACE8C0098D46704710B56D
:1011B0000446AFF300802046BDE81040FFF7F1B8C9
:1011C0005FEA400C08BF91F0000F4FEA8C234FEA12
:1011D000C12243EA51514FEA1C5018BF00F5F040BC
:1011E0004FEA300018BF41F000415FEA6C5C00F04C
:1011F0002980BCF1FF3F08BF40F080407047130CCE
:1012000006BF12044FF0100C4FF0000C130E04BF79
:1012100012020CF1080C130F04BF12010CF1040CA4
:10122000930F04BF92000CF1020CD30F04BF5200C5
:101230000CF1010C11464FF00002A0F11F00A0EBD1
:101240000C00704711F0004F08BF704731F00041AB
:101250003FF4D5AF0B0C06BF09044FF0100C4FF054
:10126000000C0B0E04BF09020CF1080C0B0F04BF9D
:1012700009010CF1040C8B0F04BF89000CF1020C66
:10128000CB0F04BF49000CF1010CCCF12003A0EB03
:101290000C0022FA03F302FA0CF241EA030100F116
:1012A0000100704720F07F4C80EA030023F07F4765
:1012B000ACEB070303F57C5300F0004003F1FF03A0
:1012C0002DE980494FEA154B09B44FEA144325EA4A
:1012D0000B4E24EA03480FF2042606EB13274908B5
:1012E0003E785FEA320203FB0667C7F5000707FB9B
:1012F00006F64FEA54374FEAD64606F1020607FBD8
:10130000066CCCF1005C4FEA1C472CEA074C07FB4B
:1013100006F40CFB06F504EB15464FEA961634BFAF
:1013200000204FF000404FEAD13706FB07FC4FEAA0
:101330001C4C0CFB0BF7D21B03FB0CF761EB0701FA
:101340000CFB0EF7B0EB074072EB17420CFB08F7F3
:1013500034BFA2EB0742B2EB074261EB17414FEA01
:101360000C444FEA910706FB07FC4FEA1C4C0CFBB0
:101370000BF7B0EBC74072EB573203FB0CF734BFEF
:10138000A2EBC742B2EBC74261EB57310CFB0EF741
:10139000B0EBC70072EB57720CFB08F734BFA2EB3F
:1013A000C702B2EBC70261EB5771039F4FEA81613D
:1013B00041EA921104EBCC044FEAD1374FEA826242
:1013C00006FB07FC42EA90124FEA80604FEA1C4C91
:1013D0000CFB0BF7D21B03FB0CF761EB07010CFBBB
:1013E0000EF7B0EB074072EB17420CFB08F734BF67
:1013F000A2EB0742B2EB074261EB17414FEA8C5573
:101400004FEA910704EB9C2406FB07FC4FEA1C4CB7
:101410000CFB0BF7B0EBC74072EB573203FB0CF73A
:1014200034BFA2EBC742B2EBC74261EB57310CFBB2
:101430000EF7B0EBC70072EB57720CFB08F734BF26
:10144000A2EBC702B2EBC70261EB577115EB4C255B
:101450004FEA816141EA92114FEA82624FEAD13745
:1014600042EA901206FB07FC44F100044FEA806058
:101470004FEA1C4C0CFB0BF7D21B03FB0CF761EB88
:1014800007010CFB0EF7B0EB074072EB17420CFBA9
:1014900008F734BFA2EB0742B2EB074261EB1741FA
:1014A00015EB1C154FEA813141EA92414FEA823235
:1014B00042EA90424FEA80304FEA0C7644F1000451
:1014C00048EA03434EEA0B484FF0000EB2EB080C1B
:1014D00071EB030724BF624639464EEB0E0E4FF008
:1014E000000B0018524149414BEB0B0BB2EB080CBF
:1014F00071EB03077BF1000B24BF624639464EEBCC
:101500000E0E4FF0000B0018524149414BEB0B0BF4
:10151000B2EB080C71EB03077BF1000B24BF6246B2
:1015200039464EEB0E0E51EA020718BF46F001068F
:1015300016EB0E7655F1000254F1000103D5BDE81B
:101540008901BDE80088BDE88901BDE80048B619F9
:10155000524141EB0101A3F10103704780807F7E7E
:101560007D7C7B7A79787776767574737271717019
:101570006F6E6E6D6C6C6B6A6A69686867666665CB
:101580006464636362616160605F5F5E5E5D5D5C59
:101590005C5B5B5A5A5959585857575656555555CA
:1015A0005454535352525251515050504F4F4F4E2A
:1015B0004E4D4D4D4C4C4C4B4B4B4A4A4A49494978
:1015C00048484847474747464646454545444444BA
:1015D000444343434342424242414141002B26D4CB
:1015E000770021D01CB54FEA370703B44FF0100045
:1015F0004FF010014FF000000FBCBDE810400BF1A0
:10160000010BBBF1010F08BF5FEA170722BF12F100
:10161000010211F101014FF0004143F1000300F01C
:10162000004043EA00007047F9D35708DAE746EA7A
:10163000064613F1400F4FEA16461FDD13F1200F47
:10164000DFBF16430A46002120335B42C8D0C3F1F6
:10165000200746EA064602FA07F74FEA164646EA28
:101660000706C3F1200722FA03F201FA07F721FA6D
:1016700003F14FF0000342EA0702B1E746EA02062F
:1016800046EA06464FEA164646EA0106BCBF46EA67
:101690000646360C4FF000034FF000024FF00001F9
:1016A0009EE72DE9C048934630B491E8380007C85A
:1016B00031EA400C48BF34EA430C03D5FFF7F2FD92
:1016C000FFF78CFFF0BCBDE800882DE9C0489346C9
:1016D00030B491E8380007C810F0804F08BF13F00D
:1016E000804F03D100F005F8FFF778FFF0BCBDE8AC
:1016F000008820F07F4780EA030023F07F4C07EB4F
:101700000C03A3F57C5300F00040A3F1FE0392F01C
:10171000000F00F0B38095F0000F00F077802DE906
:1017200001494FEA11404FEA144621EA004800FB04
:1017300006FC24EA064708FB06F607FB08F800FB50
:1017400007F718EB06484CEB164C4FEA124B18EB18
:1017500007484FEA15464CEB174022EA0B4E0BFBAD
:1017600006FC25EA06470EFB06F607FB0EFE0BFB02
:1017700007F71EEB064E4CEB164C4FF000061EEB27
:10178000074E4CEB174B18EB0B0840F1000018EB21
:101790000E0B58EB000840F100008F1A4FF00001CB
:1017A0003CBFC943661B14BFB5EB040C00213CBF12
:1017B000C943F61B4FEA17444EEA8E0E27EA04454A
:1017C0004FEA1C4704FB07622CEA074C05FB07F7AE
:1017D0000CFB05F604FB0CFC16EB074642EB17422C
:1017E00016EB0C4642EB1C421BEB060658EB0202C2
:1017F000414146EA9E0601D5BDE80189B61952412C
:1018000041EB0101A3F10103BDE801894FEA144551
:101810004FEA114724EA054621EA074C05FB07F485
:1018200006FB07F70CFB06F105FB0CFC11EB07416F
:1018300044EB17444FEA124711EB0C4144EB1C44B4
:1018400022EA074C05FB07F206FB07F70CFB06F63E
:1018500005FB0CFC16EB074642EB174216EB0C4659
:1018600042EB1C456A1854F1000148BF7047B61995
:10187000524141EB0101A3F10103704795F0000FC4
:1018800037D04FEA11424FEA144721EA024624EAD0
:10189000074C02FB07F106FB07F70CFB06F402FB03
:1018A0000CFC14EB074441EB17414FEA154714EBCE
:1018B0000C4441EB1C4125EA074C02FB07F506FBF3
:1018C00007F70CFB06F602FB0CFC16EB074645EB94
:1018D000174516EB0C4645EB1C42121951F100015D
:1018E00048BF7047B619524141EB0101A3F1010312
:1018F00070474FEA14454FEA114724EA054621EAAA
:10190000074C05FB07F106FB07F70CFB06F24FF04F
:10191000000605FB0CFC12EB074241EB174112EBF2
:101920000C4251EB1C4148BF7047921841EB01013A
:10193000A3F101037047000010B54D48006840F066
:1019400080704B4908604A485838006840F0807001
:101950004749583908600846006820F080700860E0
:1019600043488838006820F440304149883908608D
:101970000846006840F4003008603E48006840F4C3
:1019800080203D49C1F808030846D0F8080340F418
:1019900000003849086000203749886008468068A0
:1019A00040F0805088600A2004F02CFA32488068A9
:1019B00040F48070304988600846C06820F40050C8
:1019C000C8600846C06840F48050C8600846C068D7
:1019D00020F44060C8600846C06820F01C00C86061
:1019E0000846C068C8600846006920F07040086179
:1019F00008460069214908401F4908610846806877
:101A000020F0804088600846806840F4803088601C
:101A10000846806840F00040886000BF1648806833
:101A200000F000400028F9D11348006B20F00F00AF
:101A3000114908630846006B08630846806920F076
:101A4000E06088610846806940F0E060886108468F
:101A5000806920F4600088610846806940F4600075
:101A600088610846806840F00100886010BD000071
:101A7000E04402580863025800600258FFFF00FC6F
:101A800070B503460C4600210020364D2D6825F028
:101A90008055344E356001E04D1CA9B2314D2D68A2
:101AA00005F000551DB141F6FF75A942F4DB41F682
:101AB000FF75A94201D1012052E02A4D28352D6839
:101AC00025F07C75274E2836356035462D6845EA69
:101AD00004553560234D40352D686FF30805214EC0
:101AE0004036356035462D685E1E35431D4E403606
:101AF000356035462D6825F0FE45356035462E6843
:101B0000551E46EA0565174E40363560154D2C3595
:101B10002D6825F47065134E2C36356035462D68DA
:101B2000356035462D68356035462D6845F0807541
:101B300035600C4D2D6845F080550A4E356001E04A
:101B40004D1CA9B2074D2D6805F000551DB941F691
:101B5000FF75A942F4DB41F6FF75A94200D10220CE
:101B600070BD00000044025870B504460E4615468C
:101B7000022084F8A10005EB850101EBC50204F108
:101B8000380101EB820034223146FEF782FE2A46FC
:101B90003146204600F08CF801202168486284F824
:101BA000A100002070BD704710B5014609B90120A1
:101BB00010BD022081F8A1000868806920F0704003
:101BC0000C68A061D1E901042043CC6820430C6972
:101BD00020430C68A46920430C68A06108688068F1
:101BE000314C20400C68A060888A02040868806834
:101BF0008C69144320430C68A0600868C0682A4CB4
:101C000020400C68E060888B02040868C0680C6A99
:101C1000144320430C68E06008680069224C2040AF
:101C20000C682061888C0204086800698C6A14437F
:101C300020430C682061086840691B4C20400C68F8
:101C40006061888D0204086840690C6B144320436E
:101C50000C68606191F83500020291F836000304C7
:101C60000868C06A00F07F400C68E06243EA020046
:101C700091F8344020430C68E46A20430C68E06229
:101C80000868406B40F006000C6860630868806973
:101C900040F001000C68A0610020C1F8A400012000
:101CA00081F8A100002083E700F800F0704770473A
:101CB000F0B58E880768FF68C7F30B473E443304CE
:101CC00006688436802707FB0266766806F470474C
:101CD000066884364FF0800C0CFB026677600E6855
:101CE0000768FF68C7F30B473E44761C1E4307682E
:101CF00084370CFB02777E608E890768FF68C7F324
:101D00000A073E44330406688436802707FB0266D0
:101D1000B66806F47047066884360CFB0266B76046
:101D20008E680768FF68C7F30A073E44761C46EAD8
:101D30000307066884360CFB0266B76006688436C3
:101D4000802707FB0266366926F007070668843697
:101D50000CFB026637610F69066884360CFB02666D
:101D600037613126765C33023226765C34040E7E8F
:101D7000350606688436802707FB0266B6690027A9
:101D8000066884360CFB0266B76191F830601E432A
:101D9000264346EA0507066884360CFB0266B761EF
:101DA00006688436802707FB0266766926F0FF07FF
:101DB000066884360CFB026677614F6906688436D4
:101DC0000CFB0266776106688436802707FB026693
:101DD000F66940F20777BE43076884370CFB027749
:101DE000FE61D1E907763743066884360CFB02664C
:101DF000F76106688436802707FB0266B66A00270B
:101E0000066884360CFB0266B7624F6A0668843641
:101E10000CFB0266B7620E690EB9042313E00E696B
:101E2000012E01D103230EE00E69042E08D00E69A5
:101E3000022E05D00E69032E02D00E69072E01D1A5
:101E4000022300E0012306688436802707FB026630
:101E5000F66A06F0E027066884364FF0800C0CFB2B
:101E60000266F762D1E90076F61B5E43F61D0F8D20
:101E70005F4346EA0747066884360CFB0266F76252
:101E800006688436802707FB0266366BF70AFF0276
:101E9000066884360CFB02663763CF6A06688436B0
:101EA0000CFB0266376306688436D701F65946F0A4
:101EB0000107066884364FEAC21C46F80C70F0BD74
:101EC0004169826942F008028261826942F010022F
:101ED0008261026822F001020260026940F26F33FF
:101EE0009A430261826822F44042826001F020023B
:101EF0001AB1826942F02002826101F040021AB1F7
:101F0000826942F04002826101F400721AB1826972
:101F100042F40072826101F480721AB1826942F463
:101F20008072826170472DE9FF4F83B004468B4673
:101F30009946DDF840A002F0D3FA0290206840F004
:101F400001002060206840F4007020604D464F463C
:101F5000059ED84642E0606900F0020080B17DB184
:101F6000012D06D9B8F80000208408F10208AD1E42
:101F700006E098F8000084F8200008F101086D1EC2
:101F8000606900F46040C8B1C7B1606900F4004006
:101F900020B1206B3060361D3F1F0FE0606900F4F8
:101FA000C040B0F5005F04D9208E3080B61CBF1E43
:101FB00004E094F830003070761C7F1E02F090FA36
:101FC0000299401A504502D2BAF1000F06D12046BC
:101FD000FFF776FF012007B0BDE8F08F002DBAD1E2
:101FE000002FB8D1206840F480602060CDF800A0B8
:101FF00000224FF400612046029B00F009F82046C1
:10200000FFF75EFFA06940F40060A0610020E2E7F6
:102010002DE9F04105460C4616461F46DDF81880AE
:1020200007E002F05DFAC01B404502D30320BDE883
:10203000F08168692040A04201D1012000E0002029
:10204000B042EED00020F2E710B501F0ADFF01F094
:102050005DFF0348006840F004000149086010BDBE
:102060009CEF00E010B5012003F0CCFE4FF40050CF
:1020700007490860002000F09BFF012807D10548B0
:102080000089401C03490881002001F071FA10BD4D
:102090008800005808000020F0B503460846CD1718
:1020A00001EB9575AD10A1EB8505AD062C0E25480D
:1020B000006840F00200234D2860CD1701EB9575B4
:1020C000AE10214D55F826500F26A640B5430846C0
:1020D000CE1701EB9676B7101B4E46F82750CD175A
:1020E00001EB9575AE10184D55F8265003FA04F61D
:1020F0003543CE1701EB9676B710134E46F82750AE
:102100001248006801258D4028434FF0B045C5F8BE
:10211000800002F0010038B12846406801258D405A
:1021200028434FF0B045686002F0020040B14FF024
:10213000B040006801258D4028434FF0B04528602D
:10214000F0BD0000F4440258080400588000005814
:1021500030B5CC1000F1200353F824304C07E50EC5
:102160000F24AC40A343CD1000F1200444F82530E7
:10217000CC1000F1200353F824304C07E40E02FA8F
:1021800004F42343CD1000F1200444F8253030BD81
:1021900002461069084008B1012070470020FCE7A2
:1021A00002F001031BB143690B43436102E0436941
:1021B0008B43436170472DE9F0470C46DDE9086722
:1021C000002100258C4600BF60E04FF0010808FAAE
:1021D00001F504EA050CAC4557D1D0F800804FEA70
:1021E000410A4FF0030909FA0AF928EA0908C0F878
:1021F0000080D0F800804FEA410902FA09F948EA64
:102200000908C0F80080012A01D0022A27D1D0F89D
:1022100008804FEA410A4FF0030909FA0AF928EA4F
:102220000908C0F80880D0F808804FEA410906FA8A
:1022300009F948EA0908C0F80880D0F804904FF07E
:10224000010808FA01F829EA0809C0F80490D0F852
:10225000048003FA01F948EA0908C0F80480D0F8BC
:102260000C804FEA410A4FF0030909FA0AF928EAFB
:102270000908C0F80C80D0F80C804FEA410907FA31
:1022800009F948EA0908C0F80C80491C10299CD3B8
:10229000BDE8F0872DE9F04107460D4616464FF0A0
:1022A000010802F031FA384600F078F8E8B902F097
:1022B0002BFA1048007802F099FA012815D1002471
:1022C0000DE0681EA04204D1002002F0EFF9305565
:1022D00003E0012002F0EAF93055601CC4B2AC42C0
:1022E000EFDB02F033FA4FF0000802F02FFA40461D
:1022F000BDE8F081980000201CB5012000210B46AC
:102300000246CDE9001010211748FFF754FF0022C4
:1023100010211548FFF744FF012208211248FFF75A
:102320003FFF42F2107002F033F9002208210E48FC
:10233000FFF736FF0D4802F02BF9012208210A4869
:10234000FFF72EFF0A4802F023F900200090034611
:102350000246102101900448FFF72DFF44F620604B
:1023600002F016F91CBD000000100258F0490200EE
:102370003057050070B506460C4602F0C5F93046E8
:1023800000F00CF828B9204602F030FA012800D0FD
:10239000012502F0DBF90025284670BD70B5044622
:1023A00002F0B2F90948007802F020FA01280AD1B7
:1023B000201202F01BFA012805D1E0B202F016FA51
:1023C000012800D001250025284670BD9900002075
:1023D0007047000010B50446012003490870D4F886
:1023E000FC0302F09BFD10BDE801002070B504461F
:1023F0000D46C5EBC50304F1380101EB8301CA6842
:102400002946D4F8FC0302F0D9FC70BD70B504462F
:102410000D46C5EBC50304F5FC7101EB8301CA68E9
:102420002946D4F8FC0302F036FD70BD10B5044611
:1024300000200549087005A0FEF74AF8D4F8FC030F
:1024400002F06FFD10BD0000E8010020555342204E
:1024500044657669636520446973636F6E6E656376
:102460007465642E0D0A000070B504460D46002602
:1024700005F08000802808D105F07F00C0EBC00186
:1024800004F1380000EB810605E0C5EBC50104F559
:10249000FC7000EB81060020B07005F07F0030700A
:1024A000C5F3C010707000BF94F8B803012801D1C3
:1024B000022070BD012084F8B80300BF31462068B7
:1024C00003F084F900BF002084F8B80300BF00BF08
:1024D000EFE72DE9F04705460E4690461F464FF0C0
:1024E0000009002406F08000802808D106F07F0053
:1024F000C0EBC00105F1380000EB810407E006F0F5
:102500007F00C0EBC00105F5FC7000EB810406F014
:102510007F00207006F08000C0096070C4F8088059
:10252000E770607808B12078E080022F01D10020A8
:10253000207100BF95F8B803012802D10220BDE840
:10254000F087012085F8B80300BF2146286802F013
:10255000BFFF00BF002085F8B80300BF4846EEE784
:102560002DE9F04104460E4617469846002506F030
:102570007F00C0EBC00104F5FC7000EB8105EF604B
:10258000C5F814800020A861687006F07F002870EC
:102590002069012800D12F6106F07F0028B9227C34
:1025A0002946206803F018F804E0227C29462068B8
:1025B00003F096F90020BDE8F08170B504460D46A1
:1025C000002605F08000802808D105F07F00C0EBD0
:1025D000C00104F1380000EB810605E0C5EBC50140
:1025E00004F5FC7000EB81060120B07005F07F005F
:1025F0003070C5F3C010707000BF94F8B8030128A4
:1026000001D1022070BD012084F8B80300BF31461B
:10261000206803F01FF905F07F0028B9217C04F53C
:102620006F72206803F0B0F800BF002084F8B80390
:1026300000BF00BFE6E72DE9F04104460E4617460D
:102640009846002506F07F00C0EBC00104F1380079
:1026500000EB8105EF60C5F814800020A86101201F
:10266000687006F07F0028702069012800D12F6172
:1026700006F07F0028B9227C2946206802F0ACFFD2
:1026800004E0227C2946206803F02AF90020BDE8F6
:10269000F08100002DE9FC5F044626684FF0000B36
:1026A0000020019080460025009081468246FE4F22
:1026B000206803F0B7FA00287DD1206803F0EAFA19
:1026C00008B9BDE8FC9F206803F0E4FA00F00200BE
:1026D000022801D121684861206803F0DBFA00F488
:1026E0000020B0F5002F67D10025206803F0A8FA7C
:1026F0000190A8E0019800F0010000287ED0E9B226
:10270000206803F0BCFA804608F00100002860D081
:10271000012106F5306000EB45108160306CE34923
:1027200088420ED3206901280BD1D6F8080B00F49B
:10273000004030B14FF4004106F5306000EB451029
:102740008160206901282BD1C5EBC50104F5FC701F
:1027500000EB8100816806F5306000EB45100069F0
:10276000C0F31200091AC5EBC50204F5FC7000EBBA
:1027700082008161C5EBC50104F5FC7000EB8100AE
:10278000C5EBC502C16804F5FC7000EB82008068EF
:102790000144C5EBC50204F5FC7000EB8200C1608A
:1027A000E9B22046FFF732FE2069012811D185B930
:1027B000C5EBC50101E0ECE249E004F5FC7000EB7B
:1027C0008100406928B904F56F720121206802F088
:1027D000DBFF08F0080008281DD1306CB34988429F
:1027E00010D3206901280DD1D6F8080B00F4004061
:1027F00040B14FF4004106F5306000E01FE000EB0F
:1028000045108160204600F06FFB082106F530601E
:1028100000EB4510816008F01000102805D1102150
:1028200006F5306000EB4510816008F0200020289C
:1028300005D1202106F5306000EB451081606D1C4C
:10284000019840080190019800287FF453AF206858
:1028500003F020FA00F48020B0F5802F7DD12068AD
:1028600003F0E5F90190002585E0019800F00100F2
:1028700000287CD0E9B2206803F0EBF9804608F02C
:102880000100E8B30120A840009040F634008059D0
:102890000099884340F634018851012106F5106003
:1028A00000EB451081602069012815D1C5EBC501F9
:1028B00004F1380000EB8100C5EBC502C16804F1EA
:1028C000380000EB820080680144C5EBC50204F1CA
:1028D000380000EB8200C160E9B22046FFF786FDB8
:1028E0002069012810D15DB9C5EBC50104F138009C
:1028F00000EB8100406918B904F56F72012100E016
:1029000002E0206802F040FF08F00800082805D126
:10291000082106F5106000EB4510816008F01000FA
:10292000102805D1102106F5106000EB45108160DC
:1029300008F04000402805D1402106F5106000EB6A
:102940004510816008F00200022805D1022106F539
:10295000106000EB4510816001E010E007E008F036
:102960008000802803D12946204601F06DF86D1CB7
:10297000019840080190019800287FF476AF206804
:1029800003F088F900F00040B0F1004F1AD140F692
:102990000400805920F0010140F60400815194F8B0
:1029A000EC03012807D1002084F8EC030021204625
:1029B000FFF70EFD02E0204600F062FA4FF0004003
:1029C00021684861206803F065F900F40060B0F503
:1029D000006F0CD140F60800805900F0010010B1E2
:1029E000204600F08BFA4FF40060216848612068AF
:1029F00003F050F900F00060B0F1006F17D14FF014
:102A000000602168486194F8EC0368B9012084F8FB
:102A1000EC032068406DC0F38300C4F8F00301218B
:102A20002046FFF7D5FC02E0204600F067FA206858
:102A300003F030F900F48050B0F5805F60D140F6CB
:102A40000400805920F0010140F60400815110215A
:102A5000206803F0ADF84FF0000B0CE0FF2106F505
:102A6000106000EB4B10816006F5306000EB4B10FE
:102A700081600BF1010B60685845EFD84FF0FF31D2
:102A800040F618008151001D805940F0011140F6B8
:102A90001C008151206BA0B1D6F8840840F00B01D6
:102AA000C6F8841804E000000084D7170A31544F98
:102AB00040F64400805940F00B0140F6440081513B
:102AC0000EE040F61400805940F00B0140F614006F
:102AD0008151001F805940F00B014FF4016081517A
:102AE000D6F8000820F4FE60C6F80008217C04F542
:102AF0006F72206802F048FE4FF4805021684861F0
:102B0000206803F0C7F800F40050B0F5005F78D1FA
:102B1000206802F03FFD2068C06820F470502168F2
:102B2000C860206803F05CF858B90021E1604FF4F8
:102B3000007161612068C06840F410502168C8606D
:102B400080E00321E16040216161934F9348874217
:102B500009D39348874206D22068C06840F4705079
:102B60002168C8606EE08E48874209D38D4887424D
:102B700006D22068C06840F460502168C86061E0F7
:102B80008848874209D38848874206D22068C068AF
:102B900040F450502168C86054E08348874209D30C
:102BA0008248874206D22068C06840F440502168BD
:102BB000C86047E07D48874209D37D48874206D2F6
:102BC0002068C06840F430502168C8603AE0784816
:102BD000874209D37748874206D22068C06840F40C
:102BE00020502168C8602DE0724887420AD372489D
:102BF000874207D22068C06840F410502168C8603E
:102C000020E026E06C48874209D36C48874206D210
:102C10002068C06840F400502168C86012E067482E
:102C2000874209D36648874206D22068C06840F4CC
:102C3000E0502168C86005E02068C06840F4C050DA
:102C40002168C860204600F0CFF84FF4005021689A
:102C50004861206803F01EF800F01000102845D1EC
:102C60002068806920F0100021688861D6F82090E3
:102C700009F00F00C0EBC00104F5FC7000EB810A05
:102C8000C9F3434002281AD147F6F07009EA000060
:102C900030B3C9F30A123046DAF80C1003F000F82A
:102CA000C9F30A11DAF80C000844CAF80C00C9F399
:102CB0000A11DAF818000844CAF8180010E0C9F33D
:102CC000434006280CD1082204F56F71304602F00B
:102CD000E7FFC9F30A11DAF818000844CAF8180027
:102CE0002068806940F0100021688861206802F047
:102CF000D1FF00F00800082805D1204600F0D4F8E4
:102D0000082021684861206802F0C4FF00F48010A8
:102D1000B0F5801F07D1E9B2204600F053F84FF418
:102D2000801021684861206802F0B4FF00F40010B0
:102D3000B0F5001F07D1E9B2204600F04CF84FF47F
:102D4000001021684861206802F0A4FF00F0804074
:102D5000B0F1804F06D12046FFF73CFB4FF080409A
:102D600021684861206802F095FF00F00400042803
:102D70000FD12068D0F8049009F00400042802D193
:102D80002046FFF753FB2068406840EA09002168AD
:102D9000486000BF95E4000000C2EB0BC0ACD80057
:102DA000C0E1E4000024F40080730601A0491A0188
:102DB000002D310140A44C0100366E0120ABA6016C
:102DC0000048E80170B504460D462946D4F8FC03D6
:102DD00002F0D0F870BD70B504460D462946D4F80F
:102DE000FC0302F0CAF870BD70B504460125E06826
:102DF00010B102280AD104E00CA0FDF769FB002500
:102E000009E011A0FDF764FB012504E015A0FDF722
:102E10005FFB012500BF00BFD4F8FC0302F0D0F82F
:102E20002946D4F8FC0302F005F970BD5553422041
:102E3000446576696365204C69627261727920200D
:102E40005B48535D0D0A0000555342204465766986
:102E50006365204C69627261727920205B46535D24
:102E60000D0A000055534220446576696365204C85
:102E700069627261727920205B46533F5D0D0A00E2
:102E800010B5044603A0FDF723FBD4F8FC0302F0C1
:102E9000B9F810BD44657669636520526573756D38
:102EA00065640D0A0000000010B50446D4F8FC0368
:102EB00002F0AFF810BD70B504460D4600BF94F89F
:102EC000B803012801D1022070BD012084F8B803A5
:102ED00000BF2946206802F0F7FE00BF002084F8FA
:102EE000B80300BF00BFEFE710B5044604F56F71EB
:102EF000D4F8FC0302F0B2F810BD000010B504468F
:102F000000200549087005A0FDF7E2FAD4F8FC039B
:102F100002F0E5F810BD0000E80100204465766984
:102F2000636520496E2073757370656E64206D6FE4
:102F300064652E0D0A00000010B5044654B9012244
:102F40000D210220FFF7A8F80423282200210220E7
:102F500000F0F2FC10BD00001CB51348006840F002
:102F600004001149086000241BE004EB44000F49F1
:102F700001EB80008079002104EB44020B4B03EB52
:102F80008202CDE90010918804EB440253F822003C
:102F900000231A46FFF70FF9E0B2FFF7CDFF601CE0
:102FA00084B2002CE1D01CBDE0440258080000208F
:102FB00010B50446022002F025FF04EB440014493A
:102FC00001EB80008079012810D104EB44020B460C
:102FD00003EB8202918804EB440253F82200FFF7CE
:102FE000D7F808B1002010BD0120FCE704EB440233
:102FF000074B03EB8202918804EB440253F8220052
:10300000FFF7C6F808B10120EDE70020EBE700006C
:10301000080000201448006820F0010012490860F0
:103020004FF440300860114880684863002008640D
:103030000E48C068C8630E4848640C4840688863FE
:1030400000BF0C48806C0128FBD10748006840F0A5
:1030500001000549086000BF0348006800F0010056
:103060000028F9D1704700000010005260020020D3
:103070001001E001001000502DE9F0470446884699
:1030800015460026B1462746A5F12000C5B200BF6F
:1030900036E01F48006800681D490968098905FB7A
:1030A000016110F801A04FF0000923E00AF00100CF
:1030B00030B1184841460268384600F0D1F805E0C2
:1030C000144841464268384600F0CAF84FEA6A0A96
:1030D000781C87B2381B0E4909688988884205D157
:1030E000274608F101001FFA80F806E009F1010007
:1030F0001FFA80F9B9F1080FD8DB00BF701C86B247
:10310000034800680089B042C3DCBDE8F0870000D6
:1031100090000020600200202DE9F74F054616467A
:1031200000240027A146A84622E03448006802682F
:10313000324800680089611C4843105C317888423D
:103140000ED12E48006801682C4800680289601C76
:1031500000FB021040787178884201D1A24608E055
:10316000A01C84B2254800684089A04200DC00E031
:10317000DBE700BF002739E02048006800681F49EE
:10318000096809890AFB010010F807B04FF000092F
:1031900026E00BF0010030B1194802684046019961
:1031A00000F05EF805E0164842684046019900F0DC
:1031B00057F84FEA6B0B08F101001FFA80F8A8EBF3
:1031C00005000E4909688988884205D1A8460198FA
:1031D000401C80B2019006E009F101001FFA80F95D
:1031E000B9F1080FD5DB00BF781C87B2034800682F
:1031F0000089B842C0DCBDE8FE8F000094000020CA
:1032000060020020014948747047000060020020FD
:1032100070B505460E46144619E020787F280BDC71
:10322000227831462846FFF727FF0B480068808840
:10323000284485B2641C0AE0224631462846FFF73E
:103240006BFF064800688088284485B2A41C20785B
:103250000028E2D170BD0000900000209400002002
:1032600070B53B4B9B68DBB9394B5B7C43B9384B42
:10327000DB68C1EB011400EB441443F8242065E043
:10328000334B5B7C012B61D1314BDC68C0F588731B
:103290005B1EC3EB031301EB431344F8232055E0FB
:1032A0002B4B9B68012B36D1294B5B7CA3B9284C57
:1032B000E468C1EB011500EB451505EB45056253CC
:1032C000130C234CE468C1EB011500EB45150326F4
:1032D00006FB0544A37039E01D4B5B7C012B35D107
:1032E0001B4BDD68C0F588735B1EC3EB031301EB5A
:1032F000431303EB4303EA52140C154BDD68C0F58E
:1033000088735B1EC3EB031301EB4313032606FB19
:1033100003539C701AE00E4B5B7C43B90C4CE46881
:10332000C1EB011500EB451524F815200EE0084B04
:103330005B7C012B0AD1064BDD68C0F588735B1EF0
:10334000C3EB031301EB431325F8132070BD0000FA
:103350006002002070B50024002100230022224DCD
:10336000AD68022D0DD100F47805290A00F47C45E2
:103370006B09C0F3C40241EA030515431A4E756098
:1033800030E0194DAD68032D15D100F07F450DB922
:10339000002401E04FF4004400F47805690A00F4C9
:1033A0007845AB09C0F3C40244EA01051D43154347
:1033B0000D4E756016E00C4DAD68042D10D1050F53
:1033C0002C0300F47005290B00F470452B0AC0F3A0
:1033D000031244EA01051D431543034E756001E0E5
:1033E000014D686070BD00006002002070B50024CF
:1033F000002100230022224DAD68022D0DD100F4E2
:103400007805290A00F47C456B09C0F3C40241EA3F
:10341000030515431A4E356030E0194DAD68032D94
:1034200015D100F07F450DB9002401E04FF40044B0
:1034300000F47805690A00F47845AB09C0F3C402CA
:1034400044EA01051D4315430D4E356016E00C4D51
:10345000AD68042D10D1050F2C0300F47005290B65
:1034600000F470452B0AC0F3031244EA01051D4322
:103470001543034E356001E0014D286070BD00002A
:1034800060020020014908607047000090000020A1
:103490004FF01051034AD1600221916091740021D4
:1034A0001174704760020020134908608188142954
:1034B00012D004DC0C2907D0102919D108E01829F2
:1034C0000ED0202914D10FE00C490D4A116010E0F4
:1034D0000C490B4A11600CE00B49094A116008E0E5
:1034E0000A49074A116004E00949054A116000E0F1
:1034F00000BF00BF7047000094000020480000207B
:10350000900000203C00002030000020240000201B
:10351000180000201CB500241348006840F0040087
:103520001149086000BF1CE0012000900F4A02EB27
:10353000C402019091880D4A52F834000023012200
:10354000FEF739FE094B03EBC4039A79074B03EBF3
:10355000C4039988054B53F83400FEF721FE601C24
:10356000C4B2002CE0D01CBDE04402580000002092
:1035700010B504460C4800EBC400807908B901205E
:1035800000E00020084901EBC4018871064B03EB01
:10359000C4039A79044B03EBC4039988024B53F894
:1035A0003400FEF7FDFD10BD0000002070B504469C
:1035B0002068856B2068466B05F00400B8B106F002
:1035C0000400A0B12068406B20F00400216848632B
:1035D00004202168C863D4F8A40040F00100C4F8B6
:1035E000A400042084F8A1002046FEF7DCFA05F0D0
:1035F0000200B8B106F00200A0B12068406B20F0D4
:1036000002002168486302202168C863D4F8A4003E
:1036100040F00200C4F8A400042084F8A100204671
:10362000FEF7C1FA05F0010080B106F0010068B1B3
:103630002068406B20F00100216848630120216868
:10364000C86384F8A1002046FEF730FB05F00800AF
:1036500088B106F0080070B12068406B20F00800C7
:103660002168486308202168C863012084F8A1000C
:103670002046FEF71CFB70BD00B5B9B0A34800683A
:1036800040F00800A1490860A0481038006840F0E8
:1036900010009E49103908609C48001F006840F0E7
:1036A00001009A49091F08600846006840F00200BE
:1036B00008600846006840F004000860084600689A
:1036C00040F0080008600846006840F010000860FC
:1036D0000120009000230246C10301908C48FEF7B0
:1036E0006AFD0122D1038A48FEF75AFD002001211C
:1036F00003460222CDE900107A218648FEF75BFDE1
:103700000020012103460222CDE9001040F603719A
:103710008148FEF750FD0020012103460222CDE939
:103720000010C1217D48FEF746FD0020012103461F
:103730000222CDE900104FF489617548FEF73BFD88
:103740000020012103460222CDE900104FF4784108
:103750007348FEF730FD092200216F48FEF7F8FCA0
:10376000092201216C48FEF7F3FC0E220121694871
:10377000FEF7EEFC0E2203216648FEF7E9FC0E225E
:1037800004216448FEF7E4FC0E2205216148FEF79F
:10379000DFFC0E2206215F48FEF7DAFC0E2208212C
:1037A0005D48FEF7D5FC0E2209215B48FEF7D0FCF0
:1037B0000E220A215848FEF7CBFC0E220B21564858
:1037C000FEF7C6FC0E2200215448FEF7C1FC0E2273
:1037D00006215248FEF7BCFC0E2207214F48FEF797
:1037E000B7FC0E2203214A48FEF7B2FC0E22062146
:1037F0004748FEF7ADFC0E220A214548FEF7A8FC1B
:103800000E220B214648FEF7A3FC0E220C21444851
:10381000FEF79EFC0E220D214148FEF799FC0E2278
:1038200011463F48FEF794FC0E220F213C48FEF75C
:103830008FFC212219214FF49670FEF721F93948A7
:1038400002900020039000210491059106910791B8
:1038500008912B2109910C210A9140F20B210B9127
:103860004FF48E710C9140F213210D914FF492712F
:103870000E9100218DF83E108DF83D108DF83C1012
:1038800002208DF8A90002A8FEF78EF900202C90E6
:103890004FF4F0702D9000202E904FF488702F90F0
:1038A0004FF4F07036904FF48870379002203090CB
:1038B000FF2031904FF480603390052034904FF01A
:1038C00010503590002032908DF8E00000218DF8E6
:1038D000E1108DF8E21000222CA902A8FEF744F9AD
:1038E0000020FFF78FFC0020FFF7D2FD0E48FFF706
:1038F000C9FD0E48FFF7D8FD0D48FFF72BFD0D4819
:10390000FFF774FDFFF786FB39B000BDE4440258B1
:10391000000C025800000258000402580008025827
:1039200000100258001000502400002078000020F1
:103930000000FFFFFF0000FF2DE9F0410746884629
:1039400014461D46284600F033F8C5F1040007FA76
:1039500000F60F20284100EA0800064306F00F0693
:10396000E21704EBD2625211920002F1E022D2F887
:1039700000212146E31704EBD3635B11A4EB431C46
:10398000012303FA0CF31A432046E31704EBD36335
:103990005B119B0003F1E023C3F800210348005DA5
:1039A00040EA061001490855BDE8F08100E400E056
:1039B0000146072323EA01021202054B18684FF65D
:1039C000FF031840034B18431043014B1860704726
:1039D0000CED00E00000FA054A0A52020243014BD6
:1039E0001A60704708ED00E010B508A0FCF770FD04
:1039F0004FF47A7002F006FA0AA0FCF769FD4FF462
:103A00007A7002F0FFF900F005FD10BD4D656D20E4
:103A1000416363657373204572726F7221210D0AD1
:103A200000000000536F6674205265736574696E00
:103A3000672E2E2E0D0A000010B50248FEF72AFE52
:103A400010BD0000540300202DE9F84F07460E4634
:103A5000D7F8008000240025A146A246C6EBC60187
:103A600007F1380000EB8104D4E90501451AA0688C
:103A7000A84200D2A568E81CC11700EB91714FEA7B
:103A8000A1091AE0D4E90501451AA068A84200D2AC
:103A9000A568E81CC11700EB91714FEAA109387CB9
:103AA000ABB2F2B200904046E16802F01FF9E06864
:103AB0002844E060A0692844A06108F5106000EB8C
:103AC0004610806980B2484506D9D4E9051088427D
:103AD00002D260690028D5D1002D0CDC012000FA4B
:103AE00006FA40F6340050F8080020EA0A0040F6D2
:103AF000340141F808000020BDE8F88F10B50B48EC
:103B0000C06800F4807040B10848C06820F480703C
:103B10000649C86006A0FCF7DBFC0848006840F4D2
:103B200000304FF0B041C1F8880010BD004000588F
:103B3000414C41524D2041210D0A0000880000589F
:103B4000014600BF081100EB8000420001F00F00A9
:103B50001044C0B270470146002204E0501CC2B2BB
:103B6000A1F10A00C1B20A29F8DA100741EA10608F
:103B700070470000F0B504460D4616461F46002368
:103B800000BF00F09BF90028FBD10A484368C3F34B
:103B90000740FFF7D5FF2070C3F30420FFF7D0FFE5
:103BA000287003F03F00FFF7CBFF3070C3F34230C3
:103BB0003870F0BD00400058F0B504460D4616467A
:103BC0001F46002300BF00F079F90028FBD10A4806
:103BD0000368C3F30540FFF7B3FF2070C3F306206B
:103BE000FFF7AEFF287003F07F00FFF7A9FF3070EA
:103BF000C3F387503870F0BD004000582DE9F04104
:103C00000027C82400255948006840F480705749AF
:103C10000860002000F0D0F887B245F250008742DB
:103C20007DD05348006840F001005149086000BF52
:103C30004F48006800F002000028F9D04C48001FEF
:103C4000006840F001004A49091F086004E0601E56
:103C500084B2052002F0D6F834B14548001F006850
:103C600000F002000028F2D04148001F056825F44A
:103C7000407514B945F4007501E045F4807545F4CC
:103C800000453B48001F0560CA203A49486253205E
:103C900048620020886000F06FF870B14FF4803007
:103CA0003349091F08600A2002F0ACF800203049AF
:103CB000091F08600220BDE8F081FF202D4908613E
:103CC0000846006940F4FE0008610846806820F05C
:103CD000400088600846C06820F08000C860FF206F
:103CE000486245F2510087420BD000231422112173
:103CF000072000F099F8062315220821104600F04D
:103D000065F834B945F25101002000F0F7F82BE0D6
:103D100005E045F25001002000F0F0F824E00A240C
:103D20001448806A86B20AE00A2002F06BF8114853
:103D3000806AB04202D1601E84B200E001E0002C33
:103D4000F2D100BF84B94FF6FF71002000F0D6F821
:103D50004FF480300649091F08600A2002F052F82B
:103D600000200349091F08600020A4E7004802580A
:103D700074440258004000580D490E48C06800F0D5
:103D8000400008B1002070470A48C06840F0800039
:103D9000084AD06000E0491E29B10648C06800F01A
:103DA00040000028F7D009B90120ECE70020EAE73D
:103DB000FFFF0F000040005801460022024800EBC0
:103DC0008102106870470000504000582DE9F04112
:103DD00006460C4615460027CA2012494862532061
:103DE0004862FFF7C9FF10B10120BDE8F0813046FD
:103DF000FFF7B1FE000403F0070140EA4138204616
:103E0000FFF7A9FE48EA00282846FFF7A4FE48EA83
:103E1000000704484760C06820F080000149C8607E
:103E20000020E2E7004000582DE9F04106460C462C
:103E300015460027CA201249486253204862FFF7FE
:103E40009BFF10B10120BDE8F0813046FFF783FEF3
:103E5000000403F0010140EA81582046FFF77BFE91
:103E600048EA00282846FFF776FE48EA000704489B
:103E70000760C06820F080000149C8600020E2E7C8
:103E80000040005810B50B48C06800F4806040B195
:103E90000848C06820F480600649C8600020FFF729
:103EA00067FB0548006840F400204FF0B041C1F8BE
:103EB000880010BD00400058880000580D49CA20F5
:103EC0000D4A5062532050621046C06820F0200016
:103ED000D06000E0491E29B10748C06800F020000A
:103EE0000028F7D009B901207047FF20024A50622C
:103EF0000020F9E7FFFF0F00004000580022024BAE
:103F000003EB8002116070475040005810B5002349
:103F1000234C236000BF00BF00BFBFF34F8F00BF23
:103F200000BF00BF231F1868C0F34E3100BFC0F3AD
:103F3000C90200BF43F6E07303EA41134FF0404467
:103F400004EA82742343174C236000BF00BF131E92
:103F5000A2F10102EED10B1EA1F10101E7D100BFD8
:103F600000BF00BFBFF34F8F00BF00BF00BF0C4BAF
:103F7000703B1B6843F48033094C703C236000BFE6
:103F800000BF00BFBFF34F8F00BF00BF00BF00BF27
:103F900000BF00BFBFF36F8F00BF00BF00BF10BDE9
:103FA00084ED00E060EF00E000BF00BF00BFBFF3A2
:103FB0004F8F00BF00BF00BF00BF00BF00BFBFF3F7
:103FC0006F8F00BF00BF00BF00201449086000BF12
:103FD00000BF00BFBFF34F8F00BF00BF00BF00BFD7
:103FE00000BF00BFBFF36F8F00BF00BF00BF0C4812
:103FF000006840F400300A49086000BF00BF00BFFD
:10400000BFF34F8F00BF00BF00BF00BF00BF00BFA6
:10401000BFF36F8F00BF00BF00BF704750EF00E0DD
:1040200014ED00E01CB504463148006840F0200063
:104030002F4908602E481438006840F003002C49CE
:1040400014390860A06840F02700A060A06820F044
:104050008250A060E06840F00150E060E0682549CF
:104060000840E060206840F001002060206D20F0F2
:10407000010020650020022103460A46CDE9001018
:1040800089031D48FEF797F807220F211A48FEF70B
:104090005FF80020022103460A46CDE900100821FE
:1040A0001648FEF788F80020022103460A46CDE9AB
:1040B000001010211148FEF77EF80020022103466F
:1040C0000A46CDE9001020210C48FEF774F80822BA
:1040D00003210A48FEF73CF8082204210748FEF7AE
:1040E00037F8082205210548FEF732F81CBD00000C
:1040F000F4440258FFFF75AC000002580004025857
:104100003EB59F2002904FF47A70042301AA02A9C1
:1041100000900948FDF707FF08B101203EBD9DF85A
:10412000050000049DF8061040EA01209DF80710E4
:1041300040EA01042046F1E7001400582DE9F0415F
:1041400004460D4616461F4601201349086000200C
:10415000114910310860104918310860091D0860C4
:10416000091D08600C4928310860091D08600A49CA
:1041700060310860012009490860FDF765FF3B4692
:1041800032462946204600F025F800214FF0104025
:10419000FFF722FCBDE8F08100440258088100517D
:1041A00010B504F0D5FE012801D004F053FB0848F7
:1041B00000681421B0FBF1F201FB120008B900F015
:1041C000F9FB03480068401C0149086010BD00006D
:1041D000A4000020F0B504460D4600210020894EC1
:1041E000366826F00406874F3E60864E0C363668E9
:1041F00046F44046834F0C373E6000BF814E0C367C
:10420000366806F40056002EF8D07F4E366846F425
:1042100080367D4F3E6001E04E1CB1B27A4E36686A
:1042200006F400361EB947F6FF76B142F4DB47F6D6
:10423000FF76B14201D10120E2E0734E28363668A4
:1042400046F00206704F28373E603E46366846EA22
:1042500005163E606C4E30363668671E3E436A4F28
:1042600030373E603E463768561E47EA4626664F60
:1042700030373E603E4637685E1E47EA0646624F6C
:1042800030373E603E46366846F080763E603E1FE0
:10429000366846F008063F1F3E603E4636683E6080
:1042A0003E46366846F440363E60574E366846F025
:1042B0008076554F3E6000BF534E366806F000765C
:1042C000002EF9D0504E2836366846F4C8364E4F88
:1042D00028373E604C4E3836366840F2B7173E43BA
:1042E000494F38373E603E46366846F400763E60B9
:1042F0003E46366846F080763E60434E2C36366841
:10430000414F2C373E603E4636683E603E4636683A
:1043100046F400263E603E46366846F400163E608F
:10432000394E4C36366826F00306374F4C373E6020
:104330003E46366846F002063E60334E366846F02A
:104340008066314F3E6000BF2F4E366806F0006633
:10435000002EF9D02C4E1836366846F008062A4F43
:1043600018373E603E4636683E60274E1036366847
:1043700046F00306244F10373E6007E0224E103609
:104380003668C6F3C201032900D100E0F6E700BF9A
:104390001E4E366846F002061C4F3E603E463668AA
:1043A00046F020063E60184E1836366846F0400645
:1043B000154F18373E603E1D366846F040063F1DDB
:1043C0003E603E46366846F480663E603E1D366876
:1043D00046F040063F1D3E600B4E366846F08006B4
:1043E000094F3E60084EF436366846F00206064F26
:1043F000F4373E60064E366846F00106044F3E60D4
:10440000F0BD00000C480258004402580020005241
:104410002004005801480249086070470400FA056A
:104420000CED00E04FF0804000694FF080400069E3
:1044300020F001004FF080410861704710B5074837
:10444000006800F0010010B10020FFF791F8034868
:10445000006820F001000149086010BD1004004010
:1044600010B50C48006800F0010058B10A4908690D
:10447000804700200749143108604FF47A700549DD
:104480001C3108600348006820F001000149086001
:1044900010BD000010080040F400002010B50E48C8
:1044A000006800F0010078B10C480078401C0B490E
:1044B000087008460078322190FBF1F201FB1200EF
:1044C00010B90020FFF754F80348006820F00100FD
:1044D0000149086010BD0000100C004014000020CD
:1044E0000148006870470000A400002070B5054630
:1044F0000C461048006840F004000E4908600E4861
:104500000560001F04600C482038006840F001007E
:1045100009492039086008482C38006840F001003B
:1045200005492C39086004231E2200210320FFF7CF
:1045300003FA70BDE84402582C08004010B5002270
:1045400020211248FDF72CFE142000F021F8002253
:1045500040210E48FDF724FE142000F019F8012236
:1045600020210A48FDF71CFE142000F011F800225B
:1045700020210648FDF714FE012240210348FDF7E3
:104580000FFE142000F004F810BD000000100258C7
:1045900008B50BE00021009104E0BDF80010491CB3
:1045A00089B20091BDF800100829F6DB011EA0F1C8
:1045B0000100EFD108BD00001CB52848006840F09C
:1045C0001000264908600846006840F010000860A6
:1045D0000846006840F0100008600846006840F097
:1045E000100008600020009001231A46202101904D
:1045F0001B48FDF7E0FD0020009001231A464021F2
:1046000001901748FDF7D7FD012000210B46024617
:10461000CDE9001010211248FDF7CDFD0120002149
:104620000B460246CDE9001008210D48FDF7C3FDF9
:10463000012220210A48FDF7B3FD0122402108484C
:10464000FDF7AEFD002210210548FDF7A9FD01226E
:1046500008210348FDF7A4FD1CBD0000E0440258FA
:104660000010025810B5002220210F48FDF798FDD8
:104670001420FFF78DFF012240210B48FDF790FD2C
:104680001420FFF785FF012220210748FDF788FD50
:104690001420FFF77DFF002220210348FDF780FD55
:1046A0001420FFF775FF10BD0010025870B50546C5
:1046B0000024002600BF1AE06006040E012220211B
:1046C0001048FDF76DFD1420FFF762FF40210D48F3
:1046D000FDF75EFD00F0010004430022202109489F
:1046E000FDF75EFD1420FFF753FF701CC6B2082EC5
:1046F000E2DB012D02D1FFF721FF01E0FFF7B2FF5E
:10470000204670BD0010025810B5012240210E480D
:10471000FDF746FD012220210B48FDF741FD142045
:10472000FFF736FF002240210748FDF739FD14202E
:10473000FFF72EFF002220210348FDF731FD142052
:10474000FFF726FF10BD00000010025810B5002230
:1047500020210F48FDF724FD1420FFF719FF002248
:1047600040210B48FDF71CFD1420FFF711FF01222B
:1047700020210748FDF714FD1420FFF709FF01224F
:1047800040210348FDF70CFD1420FFF701FF10BD89
:104790000010025810B5012240211348FDF700FD1A
:1047A0001420FFF7F5FE012220210F48FDF7F8FC49
:1047B0001420FFF7EDFE40210B48FDF7E9FC48B15E
:1047C000002220210848FDF7EBFC1420FFF7E0FE53
:1047D000002010BD002220210348FDF7E1FC142039
:1047E000FFF7D6FE0120F4E70010025870B504462A
:1047F000002528E004F0800028B10122402114485F
:10480000FDF7CEFC04E0002240211148FDF7C8FC72
:104810001420FFF7BDFE012220210D48FDF7C0FC4A
:104820001420FFF7B5FE002220210948FDF7B8FC4F
:10483000072D04D1012240210548FDF7B1FC600697
:10484000040E681CC5B2082DD4DBFFF7A3FF70BDB2
:10485000001002581FB500200090FFF7ADFEFDF7D5
:104860004BFD01AA0B2148F24010FDF713FD6A46EB
:10487000012148F24700FDF70DFD9DF8040039289D
:1048800023D101A92DA0FBF723FE9DF808009DF878
:10489000092000EB02212EA0FBF71AFE9DF80C0068
:1048A0009DF80D3000EB03229DF80A009DF80B30B7
:1048B00000EB03212BA0FBF70BFE9DF800102FA0AF
:1048C000FBF706FE002004B010BD29203349087014
:1048D00028203349087001AA0B2148F24010FDF747
:1048E000D9FC6A46012148F24700FDF7D3FC2DA010
:1048F000FBF7EEFD01A911A0FBF7EAFD9DF808000A
:104900009DF8092000EB022111A0FBF7E1FD9DF8C5
:104910000C009DF80D3000EB03229DF80A009DF875
:104920000B3000EB03210FA0FBF7D2FD9DF8001028
:1049300012A0FBF7CDFD0120C5E70000546F7563A1
:10494000682049443A204754252E3473200D0A002C
:10495000B9CCBCFEB0E6B1BEA3BA203058252E3487
:10496000780D0A00B4A5C3FEB7D6B1E6C2CAA3BA91
:104970002564202A2025640D0A000000B4A5C3FE8A
:10498000B2CECAFDC5E4D6C3B0E6B1BEA3BA2030EC
:1049900058252E3278200D0A0000000098000020D3
:1049A00099000020546F756368204572726F720D14
:1049B0000A00000010B58CB0002401AA2A2148F298
:1049C0004E10FDF767FC002148F24E10FDF7D2FCB7
:1049D0009DF8040000F00F001A494870084640781E
:1049E00001282ADB08464078052826DC00BF1CE0A9
:1049F000E000001D01A9095CE000401D01AA105C57
:104A000041EA00210F480C3020F81410E000801C0F
:104A100001A9095CE000C01C105C41EA00210948C2
:104A2000801C20F81410601CC4B206484078A042D4
:104A3000DEDC01200349087002E000200149087013
:104A40000CB010BD740200201F49C96901F020019B
:104A500009B31D49496AC8B21C49098801F40041DB
:104A6000C9B91A49098801F4804161B10A2803D003
:104A70000021164A118020E01449098841F40041C0
:104A8000124A118019E00D2806D11049098841F415
:104A900080410E4A118010E00C490988C1F30D01D4
:104AA0000B4A505409490988491C084A118011468B
:104AB0000988C72901DD002111800349096A41F0F5
:104AC0000801014A1162704700100140AC0000204B
:104AD0008A02002070B504460D46D4F81402294617
:104AE000426820469047002070BD70B504460D46D0
:104AF00094F8FC01022802D0032811D100E000BF85
:104B0000688801280BD10020C4F80402D4F81402EC
:104B10002946826820469047204600F04AF804E083
:104B20002946204600F01BF800BF00BF70BD70B5DD
:104B300006460C4615462B4622460021304600F01C
:104B40002FFA002070BD70B506460C4615462B4660
:104B500022460021304600F0CCFA002070BD70B52E
:104B600004460D468021204600F0AFFA0021204681
:104B700000F0ABFA70BD10B504460520C4F8F4018E
:104B800000231A461946204600F00AFA002010BDFC
:104B900070B504460E4615460220C4F8F401A5611E
:104BA000E5612B4632460021204600F0A2FA0020A3
:104BB00070BD10B504460420C4F8F40100231A4661
:104BC0001946204600F095FA002010BD70B5044645
:104BD0000D46E888012804D029462046FFF7BFFF8C
:104BE0001BE094F8FC01022802D003280FD108E052
:104BF0000020A060012204F108012046FFF7C8FF51
:104C00000AE00122211D2046FFF7C2FF04E02946E9
:104C10002046FFF7A4FF00BF00BF70BDF8B50446F3
:104C20000E467088001208287FD2DFE800F07E046C
:104C30000C207E7E5F6D207CD4F810120A686946D5
:104C40009047054676E0207C40B9D4F81402816A8A
:104C50006846884705460221697007E0D4F81402C7
:104C6000C16A6846884705460221697062E0B078EB
:104C7000062834D2DFE800F0030B131B232B207C23
:104C8000D4F810124A686946904705462CE0207C0B
:104C9000D4F810128A6869469047054624E0207CC3
:104CA000D4F81012CA686946904705461CE0207C7B
:104CB000D4F810120A6969469047054614E0207C32
:104CC000D4F810124A696946904705460CE0207CEA
:104CD000D4F810128A6969469047054604E03146C7
:104CE0002046FFF73CFFF8BD00BF23E0207C30B931
:104CF000D4F81402416B6846884705461AE03146ED
:104D00002046FFF72CFFEEE7207C48B9D4F81402C8
:104D1000016B684688470546072169700AE004E090
:104D200031462046FFF71BFFDDE731462046FFF7FF
:104D300016FFD8E700BFBDF8000088B1F08878B151
:104D4000F088BDF80010884202DDBDF8000000E0E8
:104D5000F0880090BDF8002029462046FFF718FF94
:104D600000BFC0E770B504460D4694F8FC01022868
:104D700002D0032811D100E000BF0120E060D4F888
:104D8000040218B1E06840F00200E060022204F181
:104D90000C012046FFF7FCFE04E029462046FFF701
:104DA000DEFE00BF00BF70BD70B504460D4629464B
:104DB000D4F82002FDF758FB002070BD2DE9F0412A
:104DC00004460E461746002E54D104F11405D4F8BB
:104DD000F401022843D1D5E90201884210D9D5E96E
:104DE0000201401AA860288982B239462046FFF79E
:104DF000AAFE00231A461946204600F0D1F82EE0FC
:104E0000E9686868B0FBF1F201FB1200B8B9E96823
:104E10006868884213D36868D4F8F81188420ED2C3
:104E2000002211462046FFF78EFE0020C4F8F8014C
:104E300000231A461946204600F0B2F80FE0D4F8D5
:104E40001402C06840B194F8FC01032804D1D4F8DE
:104E50001402C168204688472046FFF78CFE94F86C
:104E60000002012814D1204600F067F9002084F8E0
:104E700000020DE0D4F81402406948B194F8FC0136
:104E8000032805D1D4F814023146426920469047E0
:104E90000020BDE8F0812DE9F04105460E46174699
:104EA0005EBB05F58274D5F8F401032833D1D4E94B
:104EB0000201884210D9D4E90201401AA060D4E965
:104EC0000201884201D2A06800E0E06882B239465F
:104ED0002846FFF72CFE1EE0D5F81402006940B109
:104EE00095F8FC01032804D1D5F81402016928467D
:104EF00088472846FFF75DFE0DE0D5F8140280696B
:104F000048B195F8FC01032805D1D5F814023146C3
:104F10008269284690470020BDE8F08101460020C4
:104F2000704710B50446012084F8FC012179D4F8BB
:104F30001402426820469047002010BD10B502467A
:104F4000D2F8203201F08000802809D101F07F00E2
:104F5000C0EBC00403F1380000EB8400807810BD82
:104F600001F07F00C0EBC00403F5FC7000EB84008F
:104F70008078F4E702460020704702460020704720
:104F80002DE9F04104460F4615461E462B46324693
:104F90003946D4F82002FDF79CFA0020BDE8F081E4
:104FA0002DE9F04104460D4616461F463B46324663
:104FB0002946D4F82002FDF7D3FA0020BDE8F0819D
:104FC00010B504464023002211462046FFF7D8FFC3
:104FD00040214FF488700151402300228021204657
:104FE000FFF7CEFF40212162012084F8FC01D4F8B4
:104FF000180228B12179D4F814024268204690475B
:10500000002010BD014691F8FD0181F8FC0100204F
:10501000704710B5044694F8FC01032808D1D4F871
:105020001402C06920B1D4F81402C169204688472F
:10503000002010BD024611740020704770B5044670
:105040000D460120044908702946D4F82002FDF7D6
:1050500032FF002070BD0000E801002070B504465A
:105060000D46294604F5027000F053F80120C4F8FB
:10507000F40140F20E20005BC4F8F80194F8080235
:1050800000F01F0020B1012808D0022812D10BE047
:1050900004F50271204600F011F913E004F50271E5
:1050A000204600F0EFF90DE004F50271204600F013
:1050B0003EF907E094F8080200F08001204600F075
:1050C00004F800BF00BF002070BD70B504460D4657
:1050D0002946D4F82002FDF770FA002070BD014681
:1050E00091F8FC0181F8FD01042081F8FC01002009
:1050F00070472DE9F04104460D4616461F463B46D3
:1051000032462946D4F82002FDF795FA0020BDE882
:10511000F0810A7802704A7842708B78CA7803EB83
:10512000022242800B794A7903EB022282808B793A
:10513000CA7903EB0222C280704701460020704703
:1051400070B504460D46A888F8B9E888E8B9A8788B
:1051500000F07F0694F8FC01032804D1294620467C
:10516000FFF7FDFC15E084F8FE6131462046FFF7AD
:1051700065FF2046FFF71DFD1EB1022084F8FC01EB
:1051800007E0012084F8FC0103E029462046FFF7F0
:10519000E6FC70BD70B504460D460226D4F8140234
:1051A00038B1D4F81402294602682046904700B965
:1051B0000026304670BD000070B504460D46A87844
:1051C0003449087008460078012804DD2946204645
:1051D000FFF7C5FC5BE094F8FC01022802D003282D
:1051E0004FD11CE02B480078A8B12A4800786060B5
:1051F000032084F8FC01274801782046FFF7CAFF06
:10520000022804D129462046FFF7A9FC70BD20469C
:10521000FFF7CFFC02E02046FFF7CBFC36E01D484D
:10522000007870B9022084F8FC011A4800786060A8
:10523000184801782046FFF74DFC2046FFF7B9FCDF
:105240001EE0144909786068884216D0217920460A
:10525000FFF740FC0F48007860600E480178204658
:10526000FFF798FF022804D129462046FFF777FC74
:10527000CCE72046FFF79DFC02E02046FFF799FCB3
:1052800004E029462046FFF76AFC00BF00BF00BFCC
:10529000BCE70000E901002070B504460D466888AF
:1052A00001280AD1C4F80402D4F8140229468268FD
:1052B000204690472046FFF77CFC70BD70B5054640
:1052C0000C46002660780A2829D2DFE800F019236E
:1052D000281E280A0528140F21462846FFF79EFCA1
:1052E00022E021462846FFF72BFF1DE021462846F5
:1052F000FFF762FF18E021462846FFF767FC13E03E
:1053000021462846FFF72EFD0EE021462846FFF7EE
:10531000C3FF09E021462846FFF7E7FB04E02146EA
:105320002846FFF71CFC00BF00BF304670BD2DE9CA
:10533000F04105460E464FF000083479307800F011
:105340006000202808D1D5F814023146826828462A
:1053500090470020BDE8F0817078002855D00128E2
:105360002AD003287AD195F8FC01022802D003281C
:105370001BD107E02CB1802C03D021462846FFF733
:10538000A4FE17E0708830B92CB1802C03D02146E0
:105390002846FFF79AFED5F814023146826828465F
:1053A00090472846FFF705FC04E031462846FFF702
:1053B000D6FB00BF00BF62E095F8FC01022802D0D6
:1053C00003281BD107E02CB1802C03D021462846AE
:1053D000FFF77BFE17E0708878B904F07F0048B1D2
:1053E00021462846FFF7E0FCD5F8140231468268D2
:1053F000284690472846FFF7DCFB04E03146284664
:10540000FFF7ADFB00BF00BF39E095F8FC010228B3
:1054100002D003282BD107E004F07F0018B1214609
:105420002846FFF752FE27E004F08000802806D1CE
:1054300004F07F0105F1140000EB011005E004F019
:105440007F0105F5827000EB0110074621462846D2
:10545000FFF774FD18B10120386002E00EE0002073
:105460003860022239462846FFF792FB04E03146B5
:105470002846FFF774FB00BF00BF00E000BF00BF7D
:10548000404667E770B504460D46002694F8FC01D7
:10549000032814D1287901280CDCD4F814022946F9
:1054A000826820469047E88840B93EB92046FFF719
:1054B00080FB03E029462046FFF751FB04E0294624
:1054C0002046FFF74CFB00BF00BF002070BD00006E
:1054D00010B50246487801282BD140F61C008058B0
:1054E0000C780123A3409BB2184340F61C0398504C
:1054F000087802F5106303EB4010006800F40040E8
:10550000F0BB0889C0F30A00CB7840EA83400B78EF
:1055100040EA835040F0805040F4004002F51064AF
:1055200004EB43131B6818430B7804EB4313186018
:105530002CE040F61C0080580C780123A340144C4A
:1055400004EA0343184340F61C039850087802F518
:10555000306303EB4010006800F4004080B9088914
:10556000C0F30A00CB7840EA834040F0805040F41A
:1055700000400B7802F5306404EB43131B6800E035
:1055800004E018430B7804EB43131860002010BDAF
:105590000000FFFF01464FF410604058C20AD202DB
:1055A0004FF41060425040F60800405800F00600EA
:1055B000042807D14FF41060405840F003024FF424
:1055C0001060425040F60400405840F4807240F6AB
:1055D000040042500020704730B503464878012847
:1055E0007DD1486918BB087803F5106404EB4010BE
:1055F0000069644C20400C7803F5106505EB4414F9
:10560000206108782C4604EB4010006940F4002526
:10561000087804EB40100561087804EB401000693D
:10562000C50CED04087804EB4010056137E00878FC
:1056300003F5106404EB40100069C50CED04087814
:1056400004EB40100561087804EB401004694D48F4
:105650000440087803F5106505EB401004618C6880
:105660004869A04201D988684861087803F5106448
:1056700004EB4010006940F40025087804EB40106A
:105680000561087804EB401004694869C0F3120012
:105690000443087803F5106505EB40100461012A06
:1056A00007D1087803F5106404EB40100D694561DB
:1056B0000BE0486948B140F63400C0580D78012429
:1056C000AC40204340F63404E050087803F5106401
:1056D00004EB4010006840F00445087800E003E067
:1056E00004EB401005604AE0087803F5306404EBF1
:1056F00040100069C50CED04087804EB401005610A
:10570000087804EB401000691E4C20400C7803F52B
:10571000306505EB44142061486908B18868486128
:10572000087803F5306404EB4010006940F400256C
:10573000087804EB40100561087804EB401000691C
:105740008C68C4F3120420430C7803F5306505EB34
:1057500044142061012A06D1087803F5306404EB73
:105760004010CD684561087803F5306404EB4010C3
:10577000006840F00445087804EB40100560002004
:1057800030BD0000FFFF07E010B503460024C3F85A
:10579000104BD3F8100B40F40024C3F8104BD3F88F
:1057A000100B40F01804C3F8104BD3F8100B40F066
:1057B000C044C3F8104B012906D1C3F8142B4FF095
:1057C00080244FF43060C450002010BD10B5024654
:1057D000487801281ED1087802F5106303EB4010C9
:1057E000006820F40014087803EB40100460C878C7
:1057F000032802D0C87802282AD1087802F510635D
:1058000003EB4010006840F08054087803EB401030
:1058100004601DE0087802F5306303EB4010006877
:1058200020F40014087803EB40100460C8780328C3
:1058300002D0C87802280BD1087802F5306303EB58
:105840004010006840F08054087803EB401004607A
:10585000002010BD10B50246487801281FD10878F5
:1058600002F5106303EB4010006800F0004048B9F7
:10587000087803EB4010006820F08044087803EBC0
:1058800040100460087802F5106303EB40100068D4
:1058900040F40014087803EB401004601EE0087820
:1058A00002F5306303EB4010006800F0004048B997
:1058B000087803EB4010006820F08044087803EB80
:1058C00040100460087802F5306303EB4010006874
:1058D00040F40014087803EB40100460002010BD71
:1058E000F8B505460C4616460027607801287DD19C
:1058F000606918BB207805F5106101EB4010006964
:10590000AA490840217805F5106202EB41110861AF
:105910002078114601EB4010006940F40022207805
:1059200001EB40100261207801EB40100069C20CCD
:10593000D204207801EB401002614FE0207805F599
:10594000106101EB40100069C20CD204207801EB19
:1059500040100261207801EB401000699349084033
:10596000217805F5106202EB41110861A1686069B8
:105970000844401EB0FBF1F08C49C94301EAC04025
:10598000217802EB411109690843217802EB4111AA
:1059900008612078114601EB401001696069C0F38D
:1059A00012000143207802EB40100161E0780128E9
:1059B00014D12078114601EB4010006920F0C0425C
:1059C000207801EB40100261207801EB4010006963
:1059D00040F00052207801EB40100261012E09D105
:1059E000207805F5106101EB401000E04BE02269E2
:1059F00042610EE0E07801280BD0606948B140F6C2
:105A000034004059227801219140084340F6340186
:105A10004851E07801281ED140F60800405900F4B2
:105A2000807060B9207805F5106101EB40100068C6
:105A300040F00052207801EB401002600BE020782B
:105A400005F5106101EB4010006840F080522078AD
:105A500001EB40100260207805F5106101EB401069
:105A6000006840F00442207801EB40100260E078CA
:105A7000012807D10096A08A83B222782846E168DF
:105A800000F034F98FE0207805F5306101EB40102B
:105A90000069C20CD204207801EB4010026120782A
:105AA00001EB4010016941480140207805F5306262
:105AB00002EB401001616069C0B92078114601EB2A
:105AC00040100069A168C1F312010843217802EB7C
:105AD000411108612078114601EB4010006940F443
