:020000040800F2
:10000000400700204103000865030008670300085B
:10001000690300086B0300086D030008000000007E
:100020000000000000000000000000006F03000856
:100030007103000800000000730300087503000846
:1000400077030008770300087703000877030008A8
:100050007703000877030008770300087703000898
:100060007703000877030008770300087703000888
:100070007703000877030008770300087703000878
:100080007703000877030008770300087703000868
:100090007703000877030008770300087703000858
:1000A0007703000877030008770300087703000848
:1000B0007703000877030008770300087703000838
:1000C0007703000877030008770300087703000828
:1000D000770300086D0C0008770300087703000819
:1000E000770300087703000800000000770300088A
:1000F00077030008770300087703000877030008F8
:1001000077030008770300087703000877030008E7
:1001100077030008770300087703000877030008D7
:1001200077030008770300087703000877030008C7
:1001300077030008770300087703000877030008B7
:1001400000000000000000000000000000000000AF
:100150007703000877030008770300087703000897
:100160007703000877030008770300087703000887
:100170007703000877030008770300087703000877
:100180007703000877030008770300087703000867
:100190007703000877030008770300087703000857
:1001A0007703000877030008770300087703000847
:1001B0007703000877030008770300087703000837
:1001C0007703000877030008770300087703000827
:1001D0007703000877030008770300087703000817
:1001E0007703000877030008770300087703000807
:1001F00077030008770300087703000877030008F7
:1002000077030008770300087703000877030008E6
:1002100077030008770300087703000877030008D6
:100220007703000877030008770300080000000048
:100230007703000877030008000000007703000838
:1002400077030008770300087703000877030008A6
:100250007703000877030008770300087703000896
:100260007703000877030008770300087703000886
:1002700077030008770300087703000800000000F8
:1002800077030008770300087703000800000000E8
:10029000000000007703000800F002F800F041F8C9
:1002A0000AA090E8000C82448344AAF10107DA45D1
:1002B00001D100F036F8AFF2090EBAE80F0013F0E2
:1002C000010F18BFFB1A43F001031847780C000018
:1002D000980C0000103A24BF78C878C1FAD85207A9
:1002E00024BF30C830C144BF04680C6070470000B0
:1002F0000023002400250026103A28BF78C1FBD82F
:10030000520728BF30C148BF0B607047642900F016
:100310008980002070471FB500F00EFE1FBD10B58C
:1003200010BD00F047F91146FFF7F5FF00F052FD50
:1003300000F065F903B4FFF7F2FF03BC00F0E8FC3E
:10034000DFF84000016841F470010160BFF34F8F96
:10035000DFF83400016821F040410160BFF36F8F86
:100360000A480047FEE7FEE7FEE7FEE7FEE7FEE796
:10037000FEE7FEE7FEE7FEE705480649064A074BAB
:100380007047000088ED00E034EF00E099020008BB
:1003900040010020400700204003002040030020CF
:1003A000704700000FB4044910B503AA029800F08A
:1003B000D3F810BC5DF814FB0C0000202DE9F041CF
:1003C0000E460446002020622046E168884730B38C
:1003D000252805D0D4E901219047206A401CF2E786
:1003E000E168204600278847050018D0A5F14100A4
:1003F000192802D820354FF4006732462946204696
:100400002760FFF783FF40B1012804D0F61D26F0D6
:1004100007060836D8E7361DD6E72846DAE7206A09
:10042000BDE8F0812DE9F0410646002410687529E9
:10043000314616A510D0AFF30080002802DA404202
:1004400013A507E031688A0701D512A502E0490724
:1004500004D511A5012401E0AFF3008000210A2298
:1004600006F1240709E0B0FBF2FCB0FBF2F302FB5B
:100470001C00303078541846491C0028F3D123461C
:100480002A463046BDE8F04100F00CB800000000FC
:100490002D0000002B000000200000007047704776
:1004A000704770472DE9F0470D469946924604463D
:1004B00000F124080168880604D5E06921F01001E4
:1004C000216000E00120A84201DD471B00E0002779
:1004D000A1697A1902EB0900081AA0612078C00608
:1004E00002D42046AFF30080002608E0D4E90121C1
:1004F0001AF806009047206A401C761C20624E4580
:10050000F4DB2078C0060AD52046AFF3008006E071
:10051000D4E9012130209047206A401C2062381E17
:10052000A7F10107F4DC07E0D4E9012118F8050080
:100530009047206A401C2062281EA5F10105F3DCCB
:100540002046AFF300802078000602D50220BDE8E7
:10055000F0870120FBE70000074B70B50D467B4498
:1005600000F011F80446284600F020F810B14FF0D2
:10057000FF3070BD204670BD5708000001694A1C5D
:1005800002610878704700B58FB0CDE901310021D4
:10059000059105497944CDE9031011466846FFF7F6
:1005A0000DFF0FB000BD0000E5FFFFFF007B00F076
:1005B00080007047754600F02BF8AE46050069468E
:1005C000534620F00700854618B020B5FFF7D4FE4B
:1005D000BDE820404FF000064FF000074FF0000844
:1005E0004FF0000B21F00701AC46ACE8C009ACE8C5
:1005F000C009ACE8C009ACE8C0098D46704710B529
:100600000446AFF300802046BDE81040FFF792BEDD
:1006100000487047DC00002010B500F097F900F0AA
:1006200047F90348006840F004000149086010BD24
:100630009CEF00E030B5CC1000F1200353F82430DB
:100640004C07E50E0F24AC40A343CD1000F120046D
:1006500044F82530CC1000F1200353F824304C0727
:10066000E40E02FA04F42343CD1000F1200444F810
:10067000253030BD02F001031BB143690B434361D8
:1006800002E043698B43436170472DE9F0470C4614
:10069000DDE90867002100258C4600BF60E04FF0CF
:1006A000010808FA01F504EA050CAC4557D1D0F869
:1006B00000804FEA410A4FF0030909FA0AF928EAD3
:1006C0000908C0F80080D0F800804FEA410902FA1A
:1006D00009F948EA0908C0F80080012A01D0022A75
:1006E00027D1D0F808804FEA410A4FF0030909FAF0
:1006F0000AF928EA0908C0F80880D0F808804FEA0B
:10070000410906FA09F948EA0908C0F80880D0F852
:1007100004904FF0010808FA01F829EA0809C0F826
:100720000490D0F8048003FA01F948EA0908C0F8F7
:100730000480D0F80C804FEA410A4FF0030909FA0F
:100740000AF928EA0908C0F80C80D0F80C804FEAB2
:10075000410907FA09F948EA0908C0F80C80491C60
:1007600010299CD3BDE8F0871CB50024134800680D
:1007700040F004001149086000BF1CE00120009017
:100780000F4A02EBC402019091880D4A52F83400DE
:1007900000230122FFF779FF094B03EBC4039A7989
:1007A000074B03EBC4039988054B53F83400FFF75C
:1007B00061FF601CC4B2002CE0D01CBDE0440258B4
:1007C0000000002010B504460C4800EBC4008079FE
:1007D00008B9012000E00020084901EBC40188713C
:1007E000064B03EBC4039A79044B03EBC4039988CB
:1007F000024B53F83400FFF73DFF10BD000000200E
:100800002DE9F0410746884614461D46284600F06B
:1008100033F8C5F1040007FA00F60F20284100EA7A
:100820000800064306F00F06E21704EBD2625211ED
:10083000920002F1E022D2F800212146E31704EBF6
:10084000D3635B11A4EB431C012303FA0CF31A439B
:100850002046E31704EBD3635B119B0003F1E02315
:10086000C3F800210348005D40EA0610014908551D
:10087000BDE8F08100E400E00146072323EA01021D
:100880001202054B18684FF6FF031840034B18433C
:100890001043014B186070470CED00E00000FA05B2
:1008A0004A0A52020243014B1A60704708ED00E009
:1008B00010B50023234C236000BF00BF00BFBFF36F
:1008C0004F8F00BF00BF00BF231F1868C0F34E3119
:1008D00000BFC0F3C90200BF43F6E07303EA41134F
:1008E0004FF0404404EA82742343174C236000BF56
:1008F00000BF131EA2F10102EED10B1EA1F10101F6
:10090000E7D100BF00BF00BFBFF34F8F00BF00BFE4
:1009100000BF0C4B703B1B6843F48033094C703CA8
:10092000236000BF00BF00BFBFF34F8F00BF00BFF9
:1009300000BF00BF00BF00BFBFF36F8F00BF00BF8D
:1009400000BF10BD84ED00E060EF00E000BF00BF1D
:1009500000BFBFF34F8F00BF00BF00BF00BF00BF8D
:1009600000BFBFF36F8F00BF00BF00BF002014495E
:10097000086000BF00BF00BFBFF34F8F00BF00BFC4
:1009800000BF00BF00BF00BFBFF36F8F00BF00BF3D
:1009900000BF0C48006840F400300A49086000BFFE
:1009A00000BF00BFBFF34F8F00BF00BF00BF00BF3D
:1009B00000BF00BFBFF36F8F00BF00BF00BF704715
:1009C00050EF00E014ED00E02DE9F04104460D4643
:1009D00016461F46012013490860002011491031B6
:1009E0000860104918310860091D0860091D086079
:1009F0000C4928310860091D08600A496031086007
:100A0000012009490860FFF707FE3B4632462946A8
:100A1000204600F00BF800214FF00060FFF740FF88
:100A2000BDE8F0810044025808810051F0B5044649
:100A30000D4600210020894E366826F00406874FB7
:100A40003E60864E0C36366846F44046834F0C377F
:100A50003E6000BF814E0C36366806F40056002E0C
:100A6000F8D07F4E366846F480367D4F3E6001E018
:100A70004E1CB1B27A4E366806F400361EB947F6FF
:100A8000FF76B142F4DB47F6FF76B14201D1012097
:100A9000E2E0734E2836366846F00206704F28377B
:100AA0003E603E46366846EA05163E606C4E30367D
:100AB0003668671E3E436A4F30373E603E463768B1
:100AC000561E47EA4626664F30373E603E46376838
:100AD0005E1E47EA0646624F30373E603E46366845
:100AE00046F080763E603E1F366846F008063F1F9F
:100AF0003E603E4636683E603E46366846F44036C6
:100B00003E60574E366846F08076554F3E6000BFD7
:100B1000534E366806F00076002EF9D0504E283637
:100B2000366846F4C8364E4F28373E604C4E38364D
:100B3000366840F2B7173E43494F38373E603E466D
:100B4000366846F400763E603E46366846F080766B
:100B50003E60434E2C363668414F2C373E603E4651
:100B600036683E603E46366846F400263E603E46A5
:100B7000366846F400163E60394E4C36366826F02C
:100B80000306374F4C373E603E46366846F0020655
:100B90003E60334E366846F08066314F3E6000BF9F
:100BA0002F4E366806F00066002EF9D02C4E18360F
:100BB000366846F008062A4F18373E603E463668CB
:100BC0003E60274E1036366846F00306244F103735
:100BD0003E6007E0224E10363668C6F3C201032994
:100BE00000D100E0F6E700BF1E4E366846F0020670
:100BF0001C4F3E603E46366846F020063E60184E6A
:100C00001836366846F04006154F18373E603E1DD0
:100C1000366846F040063F1D3E603E46366846F464
:100C200080663E603E1D366846F040063F1D3E60D1
:100C30000B4E366846F08006094F3E60084EF4368B
:100C4000366846F00206064FF4373E60064E3668B8
:100C500046F00106044F3E60F0BD00000C4802580B
:100C60000044025800200052200400581F49C9695E
:100C700001F0200109B31D49496AC8B21C4909881D
:100C800001F40041C9B91A49098801F4804161B1F0
:100C90000A2803D00021164A118020E0144909884F
:100CA00041F40041124A118019E00D2806D1104983
:100CB000098841F480410E4A118010E00C490988EE
:100CC000C1F30D010B4A505409490988491C084ACF
:100CD000118011460988C72901DD002111800349CF
:100CE000096A41F00801014A116270470010014091
:100CF000100000201400002000BF0449C96901F061
:100D000040010029F9D00149886270470010014074
:100D100000BF70474FF0E021096941F004014FF036
:100D2000E0221161014908607047000008000020BE
:100D300070B504461E2094FBF0F086B21E2094FB92
:100D4000F0F100FB114085B204E01E2000F00AF82B
:100D5000701E86B2002EF8D115B1284600F002F8B8
:100D600070BD00000021134A126842434FF47A73A9
:100D70005A434FF0E0235A6100229A611A461269E1
:100D800042F001021A6100BF4FF0E022116901F048
:100D900001021AB101F48032002AF5D04FF0E022AE
:100DA000126922F001024FF0E0231A6100229A61D9
:100DB000704700000800002000BF054AD26902F019
:100DC0004002002AF9D0C2B2014B9A62704700007B
:100DD00000100140042302220521A020FFF7F4FDAA
:100DE0004FF4C870FFF796FF4FF4E131642000F034
:100DF00045F8FFF7B9FC26E013A0FFF7D3FA4FF44C
:100E0000FA70FFF795FF0020FFF7DCFC124800881E
:100E100000F40040B8B110480088C0F30D0421462A
:100E20000EA0FFF7BFFA002505E01349485DFFF764
:100E300063FF681C85B2A542F7DB06A0FFF7B2FA94
:100E4000002005490880D7E748454C4C4F20574FB4
:100E5000524C44200D0A0000100000200D0A2049C9
:100E6000205245434549564520256420446174611C
:100E70003A200D0A00000000140000207CB5054651
:100E80000C462948684300EB5400B0FBF4F62748B1
:100E9000006840F0010025490860244810300068CF
:100EA00040F010002149103108600120009000231B
:100EB00002224FF4C06101901D48FFF7E6FB0722B4
:100EC00009211B48FFF7B6FB07220A211848FFF744
:100ED000B1FB1848C6600020164908600846006843
:100EE0000860084600680860084600680860084610
:100EF000006840F0080008600846006840F0040000
:100F000008600846006840F020000860022325229F
:100F100003210846FFF774FC0648006840F0010012
:100F2000044908607CBD000040420F00E0440258C4
:100F300000000258001001404FF04070E1EE100A2E
:100F400070470000640F000800000020140000003B
:100F5000D4020008780F0008140000202C070000BD
:100F6000F002000800080258020001000000000022
:080F7000000000000000000079
:040000050800029954
:00000001FF
